:020000040800F2
:100000007885012041030008DF360008BD2B000879
:10001000DD360008A10A0008D13E000800000000FB
:100020000000000000000000000000008102000845
:10003000C10B000800000000DD020008CD390008F7
:100040005B0300085B0300085B0300085B03000818
:100050005B0300085B0300085B0300085B03000808
:100060005B0300085B0300085B0300085B030008F8
:100070005B0300085B0300085B0300085B030008E8
:100080005B0300085B0300085B030008000000003E
:100090000000000000000000000000005B030008FA
:1000A0005B0300088D3A00085B0300085B0300084F
:1000B0005B0300085B0300085B0300085B030008A8
:1000C0005B0300085B0300085B0300085B03000898
:1000D0005B030008C53E00085B0300080000000049
:1000E0005B0300085B0300085B03000800000000DE
:1000F0000000000000000000000000005B0300089A
:10010000000000005B0300085B0300085B030008BD
:1001100000000000000000000000000000000000DF
:100120005B0300085B030008F90A00085B03000892
:100130005B03000800000000000000000000000059
:100140000000000000000000000000005B03000849
:10015000050B00085B030008110B00085B03000897
:100160005B0300085B0300080000000000000000C3
:10017000000000000000000000000000000000007F
:10018000000000005B030008000000000000000009
:100190005B0300085B03000800F002F800F061F860
:1001A0000AA090E8000C82448344AAF10107DA45D2
:1001B00001D100F056F8AFF2090EBAE80F0013F0C3
:1001C000010F18BFFB1A43F001031847809C02007F
:1001D000A09C02000A444FF0000C10F8013B13F001
:1001E000070408BF10F8014B1D1108BF10F8015B90
:1001F000641E05D010F8016B641E01F8016BF9D183
:1002000013F0080F1EBF10F8014BAD1C0C1B09D1D9
:100210006D1E58BF01F801CBFAD505E014F8016B4B
:1002200001F8016B6D1EF9D59142D6D370470000DD
:100230000023002400250026103A28BF78C1FBD8EF
:10024000520728BF30C148BF0B607047642900F0D7
:100250005781002070471FB522F0F0F91FBD10B57F
:1002600010BD00F04EFB1146FFF7F5FF1DF0C4FB7B
:1002700000F06CFB03B4FFF7F2FF03BC00F074FB6B
:100280002C4B19680868B0E8F04F80F30988BFF379
:100290006F8F4FF0000080F311887047000000005E
:1002A00008480068006880F308884FF0000080F379
:1002B000148862B661B6BFF34F8FBFF36F8F00DF54
:1002C00000BF00BF08ED00E0DFF80C00016841F45A
:1002D00070010160704700BF88ED00E0EFF3098016
:1002E000BFF36F8F134B1A681EF0100F08BF20ED7D
:1002F000108A20E9F04F106009B44FF0500080F3ED
:100300001188BFF34F8FBFF36F8F21F09DFB4FF02C
:10031000000080F3118809BC19680868B0E8F04F44
:100320001EF0100F08BFB0EC108A80F30988BFF3ED
:100330006F8F7047AC000020EFF30580704700001E
:100340000948804709480047FEE7FEE7FEE7FEE769
:10035000FEE7FEE7FEE7FEE7FEE7FEE704480549A5
:10036000054A064B704700007D3A000899010008D5
:10037000787F012078850120788101207881012013
:1003800053EA020C00F069802DE9F04B4FF00006B3
:10039000002B1FBFB3FA83F503FA05F424FA05F620
:1003A0005E4012BF1643B2FA82F502FA05F4C5F1B7
:1003B00020051EBF22FA05FC44EA0C04203556EA4B
:1003C000044C4FEA144418BF641C4FF000084FF06F
:1003D0000009904271EB030C39D3002919BFB1FA1F
:1003E00081F701FA07F6B0FA80F700FA07F6C7F1CD
:1003F00020071EBF20FA07FC46EA0C062037B6FB92
:10040000F4FCA7EB0507103F07F01F0BCBF120060C
:100410000CFA0BFB2CFA06F644BFB3460026202F3D
:10042000A4BF5E464FF0000B5BEA060C08BF4FF01E
:10043000010B19EB0B09ABFB027C48EB0608C01B58
:1004400006FB02CC0BFB03CC71EB0C01C1E70B46A6
:10045000024641464846BDE8F08B13B54FF0000018
:100460004FF00001AFF30080BDE81C407047000072
:100470000FB41CB5074B06AA7B446946009005984B
:1004800000F005FA0020694600F014FA1CBC5DF883
:1004900014FB0000390400002DE9F0410E4604462B
:1004A000002020622046E168884730B3252805D027
:1004B000D4E901219047206A401CF2E7E168204618
:1004C00000278847050018D0A5F14100192802D857
:1004D00020354FF400673246294620462760FFF753
:1004E000B5FE40B1012804D0F61D26F007060836F7
:1004F000D8E7361DD6E72846DAE7206ABDE8F0815E
:100500002DE9F0410646002410687529314616A5EC
:1005100010D0AFF30080002802DA404213A507E0B4
:1005200031688A0701D512A502E0490704D511A553
:10053000012401E0AFF3008000210A2206F1240724
:1005400009E0B0FBF2FCB0FBF2F302FB1C00303020
:1005500078541846491C0028F3D123462A463046D1
:10056000BDE8F04100F035B9000000002D000000AA
:100570002B0000002000000040EA0103024630B5D5
:100580009B0710D14FF0013400E008C208C91D1BC1
:100590009D4315EAC41FF8D013F0FF0102F8011BB8
:1005A0000DD01B0AF8E711F8013B002B02F8013BC4
:1005B00005D011F8013B002B02F8013BF3D130BD0F
:1005C00010B5431C02E010F8011B71B18107FAD18C
:1005D0004FF0013202C88C1A8C4314EAC211F9D0D0
:1005E000C01A0A0603D0C01E10BDC01A10BD0A04EE
:1005F00001D0801E10BD0902FCD0401E10BD032A90
:1006000040F2308010F0030C00F0158011F8013B2F
:10061000BCF1020F624498BF11F801CB00F8013B16
:1006200038BF11F8013BA2F1040298BF00F801CBDA
:1006300038BF00F8013B11F0030300F02580083AB1
:10064000C0F0088051F8043B083A51F804CBA0E808
:100650000810F5E7121D5CBF51F8043B40F8043B5D
:10066000AFF30080D20724BF11F8013B11F801CB92
:1006700048BF11F8012B24BF00F8013B00F801CB63
:1006800048BF00F8012B704710B5203AC0F00B802E
:10069000B1E81850203AA0E81850B1E81850A0E886
:1006A0001850BFF4F5AF5FEA027C24BFB1E81850E0
:1006B000A0E8185044BF18C918C0BDE810405FEA50
:1006C000827C24BF51F8043B40F8043B08BF7047CC
:1006D000D20728BF31F8023B48BF11F8012B28BFD1
:1006E00020F8023B48BF00F8012B704702F0FF03DF
:1006F00043EA032242EA024200F0E3B84FF000026C
:1007000000B5134694469646203922BFA0E80C5007
:10071000A0E80C50B1F12001BFF4F7AF090728BFE2
:10072000A0E80C5048BF0CC05DF804EB890028BF5E
:1007300040F8042B08BF704748BF20F8022B11F087
:10074000804F18BF00F8012B704700004FF0013CAC
:1007500050F8042B51F8043B9A4221D1A2EB0C0330
:10076000934313EACC1317D150F8042B51F8043BF0
:100770009A4215D1A2EB0C03934313EACC130BD18D
:1007800050F8042B51F8043B9A4209D1A2EB0C0318
:10079000934313EACC13DBD04FF00000704700BF47
:1007A000D01A01BAB1FA81F101F0180122FA01F070
:1007B000CB40C1F12001DBB2C0B2C01A2CFA01F368
:1007C000D11A914311EAC311E6D1704770477047BF
:1007D00070472DE9F0470D4699469246044600F1D0
:1007E00024080168880604D5E06921F01001216021
:1007F00000E00120A84201DD471B00E00027A169BD
:100800007A1902EB0900081AA0612078C00602D408
:100810002046AFF30080002608E0D4E901211AF851
:1008200006009047206A401C761C20624E45F4DB8F
:100830002078C0060AD52046AFF3008006E0D4E950
:10084000012130209047206A401C2062381EA7F109
:100850000107F4DC07E0D4E9012118F8050090470E
:10086000206A401C2062281EA5F10105F3DC204609
:10087000AFF300802078000602D50220BDE8F087A3
:100880000120FBE701694A1C02610878704700B546
:100890008FB0CDE901310021059105497944CDE9B9
:1008A000031011466846FFF7F7FD0FB000BD0000CA
:1008B000E5FFFFFF0A6802F8010B0A6070474FF07E
:1008C00000020429C0F0128010F0030C3FF418AFAE
:1008D000CCF1040CBCF1020F18BF00F8012BA8BF2B
:1008E00020F8022BA1EB0C01FFF70ABF5FEAC17CE5
:1008F00024BF00F8012B00F8012B48BF00F8012BA2
:100900007047754600F02CF8AE4605006946534620
:1009100020F00700854618B020B5FFF71FFDBDE8A1
:1009200020404FF000064FF000074FF000084FF056
:10093000000B21F00701AC46ACE8C009ACE8C009E7
:10094000ACE8C009ACE8C0098D46704710B5044654
:10095000AFF300802046BDE81040FFF78BBC0000DD
:1009600000487047187F012001491820ABBEFEE700
:100970002600020070470000464910B54A6822F47C
:1009800040324A604A6843681A434A6001684A68CC
:1009900022F480724A6001684A68036942EA0322CD
:1009A0004A6001684A6822F040724A6001684A68F9
:1009B00083681A434A6001688A6822F400628A6088
:1009C00001688A68C3681A438A60816A6FF070623E
:1009D000D14201688A6822F070628A6001688A6880
:1009E0000CD0836A1A438A6001688A6822F04052F8
:1009F0008A6001688A68C36A1A4301E022F04052A3
:100A00008A6001688A6822F002028A6001688A6846
:100A1000037E42EA43028A6090F8201000290168B0
:100A20004A680FD042F400624A6001684A6822F4C2
:100A300060424A6001684A68174C436A04EB4333DA
:100A40001A4301E022F400624A600168CA6A22F493
:100A50007002CA620168CA6A838B104C04EB0353AC
:100A60001A43CA6201688A6822F400728A600168C7
:100A70008A6890F8303042EA43228A6001688A68C6
:100A800022F480628A6001688A68406942EA8020B4
:100A9000886010BD0023014000E0FFFF0000F0FF70
:100AA000FEE7022000F020B81CB501A80090042346
:100AB000032215210B4802F0DDF99DF804109DF882
:100AC000050001F00F0140EA0121064808380160E5
:100AD0009DF806209DF8071002F00F0241EA02215E
:100AE00041601CBDA000002002461521014802F013
:100AF00005BA0000A0000020014800F0CDB90000B8
:100B00007C030020014800F0C7B900006C040020FD
:100B1000014800F0C1B90000CC040020016818238E
:100B2000CAB2103AB2FBF3F2054B6FF30901032A84
:100B30009B5CC36500D9091D8165084670470000AC
:100B4000B426020810B5014600208B698A6A4FF06E
:100B5000C07453B1B3F5005F15D072B1012A0CD047
:100B6000022A0AD0032A09D104E01AB1012A06D0C8
:100B7000022A03D1C96AC90100D5012010BDC96A82
:100B8000A142FAD010BD002AF7D0012AF2D0022AE1
:100B9000F3D0032AF3D010BD30B50468256825F4DE
:100BA00080252560046863608368402B036803D058
:100BB00099600068C26030BD9A600068C16030BD55
:100BC000704772B6FEE7000078B50024009490F8F4
:100BD0003C20012A19D0012280F83C200A68072312
:100BE0000568092A13D9EE680A3A02EB42029340DB
:100BF0009E43EE600B788A680A3B03EB43039A40FE
:100C00000368DD682A43DA6010E0022078BD2E69AF
:100C100002EB420293409E432E610B788A6803EBFD
:100C200043039A4003681D692A431A614A681F23D7
:100C3000072A13D205686E6B521E02EB82029340A4
:100C40009E436E630A8893B20A79521E02EB8202B7
:100C500093400268556B2B43536327E005680D2AC8
:100C600012D22E6BD21F02EB820293409E432E6360
:100C70000B790A88DB1F92B203EB83039A40036867
:100C80001D6B2A431A6311E0EE6A0D3A02EB8202F1
:100C900093409E43EE620B790A880D3B92B203EBC0
:100CA00083039A400368DD6A2A43DA621B4B0568B6
:100CB000194A9D420AD10D68122D07D1556825F4B5
:100CC00000055560556845F48005556005689D42EE
:100CD0001DD1134D0B68AB4201D0112B17D15368B6
:100CE00023F480035360536843F40003536009689E
:100CF000A9420CD10B490C4A0968B1FBF2F101EB96
:100D00008101490000E0491E00910029FBD180F8D3
:100D10003C40002078BD000000230140002001403D
:100D2000120000109400002040420F0070B5040033
:100D30004FF0000503D0206C002610B107E0012021
:100D400070BD204600F01CF8666484F83C60206C9E
:100D5000C00610D4206C20F4885040F002002064BB
:100D60002046FFF709FE6664206C20F0020040F088
:100D70000100206400E0012584F83C60284670BD35
:100D800010B586B0044614216846FFF7B7FC114938
:100D9000206888421CD110480021026842F4807209
:100DA0000260006800F4807005900B4814380268F7
:100DB00042F001020260006800F00100059002208C
:100DC00000900320CDE901016946044800F0D6F9FE
:100DD00006B010BD0020014044380240000002402F
:100DE0002DE9F0410446876D00F0CAFA064694F8F2
:100DF00035000025022806D08020606584F8345034
:100E00000120BDE8F0812068016821F01601016031
:100E10002068416921F080014161206C08B9A06C13
:100E200020B12068016821F0080101602068016894
:100E300021F0010101600CE000F0A2FA801B0528FE
:100E400007D920206065032084F8350084F83450E9
:100E5000D7E720680068C007EED194F85C103F2007
:100E60008840B860012084F8350084F834500020B0
:100E7000C7E790F83510022903D080214165012091
:100E80007047052180F835100068016821F00101E4
:100E900001600020704700002DE9F84304464FF040
:100EA0000009CDF8009063484FF41651A56D006815
:100EB000B0FBF1F72E6894F85C10082000FA01F1FD
:100EC00031420FD021680A6852070BD50A6822F018
:100ED00004020A6094F85C108840A860606D40F0DD
:100EE0000100606594F85C104FF0010808FA01F009
:100EF000304208D021684969090604D5A860606DB0
:100F000040F00200606594F85C1004208840304294
:100F100008D021680968890704D5A860606D40F091
:100F20000400606594F85C1010208840304218D0AE
:100F300021680968090714D5A86020680168490379
:100F400004D50068000308D5A16C07E00168C90555
:100F500003D4016821F008010160216C09B1204629
:100F6000884794F85C1020208840304231D02168B6
:100F70000968C9062DD5A86094F8350005282068B1
:100F8000016806D0490347D5006800031DD4616C91
:100F90001CE021F0160101602068416921F0800108
:100FA0004161206C08B9A06C20B12068016821F073
:100FB0000801016094F85C103F208840A86084F824
:100FC000358084F83490216D1FE0E16B09B1204633
:100FD0008847606D00282BD0606DC00714D00520B5
:100FE00084F835002068016821F001010160009853
:100FF000401C0090B84203D820680068C007F6D1B2
:1010000084F8358084F83490E16C002910D001B068
:101010002046BDE8F04308470168C905D5D40168FA
:1010200021F01001016084F8358084F83490CCE719
:10103000BDE8F883940000202DE9F041044600F05B
:101040009FF906465CB1022084F83500002584F83B
:1010500034502068016821F0010101600DE0012099
:10106000BDE8F08100F08CF9801B052805D920200F
:101070006065032084F83500F2E720680068C00747
:10108000F0D12268116820480140D4E901031843D7
:10109000D4E903363343184363691843A3691843FB
:1010A000E3691843236A18430843616A042903D19A
:1010B000D4E90B1319430843106020684069666A3D
:1010C00020F0070130460E43012704280CD1A06A06
:1010D0000643E06A40B12046FFF734FD20B14020CE
:1010E000606584F83570BAE7206846612046FFF7EE
:1010F00015FD94F85C203F2191408160656584F87E
:1011000035700020ACE700003F8010F02DE9F04181
:101110000446866D90F83400002501280DD001208A
:1011200084F8340094F835700020012F07D084F83B
:10113000340002252846BDE8F0810220FBE70227A3
:1011400084F8357060652046FFF726FD94F85C1042
:101150003F208840B0602068016841F016010160BE
:10116000206C20B12068016841F00801016020680E
:10117000016841F001010160DCE700002DE9F84F52
:10118000DFF8B8A10022012403254FF00F090AF16E
:10119000040BAAF1040E00BF0B6804FA02F63340F8
:1011A000B34273D10F7907F00307012F01D0022F4B
:1011B00016D187684FEA420805FA08FC27EA0C07AF
:1011C000D1F80CC00CFA08FC4CEA070CC0F808C0B7
:1011D0004768B7430E79C6F3001696403E43466013
:1011E0000E79F643B6070DD0C768560005FA06FC1F
:1011F00027EA0C07D1F808C00CFA06FC4CEA070CE9
:10120000C0F80CC00E7906F00306022E10D1D608E5
:1012100000EB8608D8F8206057074FEAD76C09FA28
:101220000CF7BE430F6907FA0CF73743C8F8207074
:1012300006684FEA420C05FA0CF7BE430F7907F037
:10124000030707FA0CF7374307604E6816F4403F70
:101250006DD03B4E376847F480473760366822F0E0
:10126000030706F480460096364E07EB060CDCF8C2
:10127000086897073F0F09FA07F826EA0806DFF81B
:10128000C880404503D14FF000081EE04FE0DFF872
:10129000BC80404502D14FF0010816E0DFF8B08075
:1012A000404502D14FF002080FE0DFF8A88040452A
:1012B00002D14FF0030808E0DFF89C80404502D1DE
:1012C0004FF0040801E04FF0070808FA07F848EA71
:1012D0000608CCF80888DAF800605746D1F804C050
:1012E0009E435FEACC2C00D51E433E60DBF80060D5
:1012F0005F46D1F804C09E435FEA8C2C00D51E43A4
:101300003E60DEF800607746D1F804C09E435FEA95
:101310008C3C00D51E433E60084F083F3E68D1F824
:1013200004C09E435FEACC3C00D51E433E60521C85
:10133000102AFFF431AFBDE8F88F0000083C0140EF
:1013400044380240003001400000024000040240E6
:1013500000080240000C02400010024000690840F2
:1013600000D001207047426921EA02030A4043EAA3
:101370000241816170470AB1816170470904FBE74E
:10138000014880687047000088000020024881689A
:101390000278114481607047880000200B4810B526
:1013A000016841F400710160016841F480610160ED
:1013B000016841F480710160032000F095F80F206E
:1013C00000F006F800F04AF8002010BD003C024092
:1013D00030B505461C4887B00024016841F0010182
:1013E0000160006806A900F00100009001A800F06B
:1013F000D1F900F0FFF91549154AB0FBF1F1154894
:10140000491E026040F2E732C0E90324C0E901143A
:10141000846100F0B1FF040012D10E4800F0DAFF41
:1014200004000DD1192000F031F8102D07D2002250
:101430002946192000F038F80748056000E001242B
:1014400007B0204630BD00004438024040420F0043
:10145000000001402C0500208C0000200A4808B53F
:10146000016841F480410160006800F48040009010
:101470000548001F016841F080510160006800F0DC
:101480008050009008BD000044380240002809DB6D
:1014900000F01F02012191404009800000F1E0208E
:1014A000C0F8001170470000F0B40E4B1B680C46EA
:1014B000C3F30223C3F10705042D00D90425191D28
:1014C000072901D2002300E0DB1E012606FA05F100
:1014D000491E214099409E40761E16403143F0BC83
:1014E00002F010BD0CED00E0064900F007020868AC
:1014F0004FF6FF03184040EA0220034A10430860F9
:10150000704700000CED00E00000FA052DE9F843FB
:10151000044600684FF00109C1074FF0000601D1F1
:10152000400729D5DFF82081C8F86860FFF728FF59
:101530000746464D05E000BFFFF722FFC01B02280B
:1015400059D828680001F7D4A068217B800140EABF
:101550000170616808433D4984310860C8F86890AB
:10156000FFF70EFF074604E0FFF70AFFC01B022843
:1015700041D828680001F7D52078800752D5334834
:101580004030016841F0805101600068304D00F04A
:1015900080500090286840F480702860FFF7F0FECB
:1015A000074604E0FFF7ECFEC01B022823D828689A
:1015B000C005F7D5254D7035286810F4407020D04F
:1015C000218A01F4407181421BD02868214920F40E
:1015D0004070C1F800900E6028602868C00710D0E5
:1015E000FFF7CEFE064641F2883707E0FFF7C8FE58
:1015F000801BB84202D90320BDE8F8832868800721
:10160000F4D521691148C1F301220830032A12D010
:10161000016821F4F81101602868218AC1F30B01E7
:10162000084328602078000703D50B49207DC1F8C6
:10163000E0010020E0E70268084B22F4F8121940AC
:101640000A430260E8E70000000047420038024019
:1016500000700040400E474200104742FFFCFF0F61
:101660002DE9F0470E46050065D0DFF81481D8F863
:101670000000F7B200F00700B04207D288F800700F
:10168000D8F8000000F00700B04254D128683D4C63
:10169000810712D5400703D5206840F4E050206050
:1016A0002878000703D5206840F460402060206857
:1016B000A96820F0F000084320602878C0072DD0EA
:1016C000304968680839012812D0022813D003284D
:1016D00011D00968890700292DDA216821F003015A
:1016E00001432160FFF74CFE814641F2883A0EE04B
:1016F00009688903EFE709688901ECE7FFF740FE15
:10170000A0EB0901514502D90320BDE8F08720680C
:10171000696800F00C00B0EB810FEFD1D8F8001031
:10172000404601F00701B14207D90770006800F098
:101730000700B04201D00120E7E72878400705D52F
:101740002068E96820F4E05008432060287800070A
:1017500006D52068296920F4604040EAC100206075
:1017600000F058F82168084AC1F30311515CC840E1
:101770000649086006480068FFF72AFE0020C4E713
:10178000003C024008380240BC26020894000020B9
:101790008C0000200F2202600C4A136803F0030340
:1017A0004360136803F0F0038360136803F4E053AD
:1017B000C36012684FF4E05303EAD20202610448A6
:1017C000006800F007000860704700000838024019
:1017D000003C02400448054900680968044AC1F316
:1017E0008221515CC84070479400002008380240B4
:1017F000CC2602080448054900680968044AC1F378
:101800004231515CC84070479400002008380240C3
:10181000CC260208154810B5006810F00C021448D8
:1018200013D01449042A0FD0082A0ED10F4C241FBC
:101830002268236802F03F025B0207D52068C0F3EC
:101840008810A0FB010106E0084610BD2168C1F325
:101850008811A1FB00010023FEF792FD2168C1F36E
:101860000141491C4900B0FBF1F010BD08380240AD
:101870000024F40040787D012DE9F84F04006ED07B
:101880002078DFF84C93C007A9F104054AD009F18C
:1018900004000168C1F38101012908D00068C0F388
:1018A000810002280AD1D9F80000400206D5286834
:1018B000800337D560680028E1D033E06068B0F578
:1018C000803F10D0B0F5A02F286810D020F48030D1
:1018D0002860286820F4802028606068A8B1FFF79D
:1018E0004FFD06460DE0286840F48030F4E740F4F0
:1018F00080202860F7E700BFFFF742FD801B6428C7
:1019000073D828688003F7D50CE0FFF739FD064649
:1019100005E000BFFFF734FD801B6428F0D828687D
:101920008003F7D42078DFF8AC8280074FF0000AFC
:101930003ED5A748001D016811F00C0F08D00068C3
:10194000C0F3810002280BD1D9F80000400207D46F
:101950002868800716D5E068012800D112E033E13D
:10196000E068B8B10120C8F80000FFF709FD06469D
:1019700005E000BFFFF704FD801B0228C0D82868DF
:101980008007F7D52868216920F0F80040EAC100F7
:1019900028600DE0C8F800A0FFF7F2FC064604E05E
:1019A000FFF7EEFC801B02281FD828688007F7D4B9
:1019B0002078000722D5864F87486169703771B15A
:1019C00001210160FFF7DCFC064604E0FFF7D8FCCC
:1019D000801B022809D838688007F7D50EE0C0F8C8
:1019E00000A0FFF7CDFC064605E082E0FFF7C8FC4B
:1019F000801B02287DD838688007F7D420784007FC
:101A000068D5DFF8CCB100270BF13C0BDBF8000008
:101A1000C0000BD4DBF8001041F08051CBF800106F
:101A2000DBF80000012700F0805000906B4E30681A
:101A3000C00510D4306840F480703060FFF7A0FC1F
:101A4000009005E0FFF79CFC0099401A022850D84E
:101A50003068C005F6D55E4EA0686C3601280FD000
:101A60000528306810D020F001003060306820F088
:101A700004003060A068B8B1FFF782FC00900FE06E
:101A8000306840F00100F4E740F004003060F7E710
:101A9000FFF776FC0099411A41F28830814266D8FE
:101AA00030688007F4D50EE0FFF76AFC009007E08D
:101AB000FFF766FC0099411A41F28830814256D8FE
:101AC00030688007F4D42FB1DBF8001021F080518A
:101AD000CBF80010A069C8B33D49091D0968C1F3DE
:101AE000810102294AD00228504607D0C8F8600078
:101AF00000E03CE0FFF744FC04463BE04746C8F802
:101B00006000FFF73DFC064605E000BFFFF738FC2C
:101B1000801B02282BD828688001F7D4D4E907015C
:101B20000843A16A2E4A490802EB0141626A41EA70
:101B30008211084394F82C1040EA0161C9F80010A2
:101B400001203866FFF71CFC044606E03EE000BFBB
:101B5000FFF716FC001B022809D828688001F7D57A
:101B600034E000BFFFF70CFC001B022802D9032061
:101B7000BDE8F88F28688001F4D427E00128F7D069
:101B8000D9F80000E26900F4800191421CD1226A78
:101B900000F03F01914217D147F6C071626A0140DF
:101BA000B1EB821F10D1A26A4FF0FF3300F4403135
:101BB00003EB5202B1EB024F06D194F82C1000F067
:101BC0007060B0EB016F01D00120D1E70020CFE7BA
:101BD0000438024000004742800E47420070004037
:101BE0000000FFFF2DE9F74F0446007F93460128D0
:101BF0001BD04FF0010884F81C8002206077216818
:101C0000CA204862206853214162206880684FF0F2
:101C1000000540054FF0FF064FF0030A4FF47A79B4
:101C20000FD5FFF7ADFB074607E00220BDE8FE8FAA
:101C3000FFF7A6FBC01B484519D82068C0684007BD
:101C4000F6D42068816821F4806181602068C168D1
:101C500001F0800161F49061C160FFF791FB0746DC
:101C60000CE000BFFFF78CFBC01B484506D920687D
:101C7000466284F81DA025770320D7E72068C06856
:101C80004007EFD52068816821F007018160206856
:101C9000816841EA0B0181602168019848612068F0
:101CA000816841F4806181602068466284F81D800B
:101CB00025770020BAE7000010B5040002D0607F4D
:101CC00010B106E0012010BD00202077204600F072
:101CD00041F8022060772068C168C943C90632D53F
:101CE000CA214162216853204862204601F004FD68
:101CF00020BB20688168164A11408160216888688D
:101D000062681043D4E904231A43104388602168B1
:101D1000E068086120680169228941EA02410161A5
:101D2000204601F00DFD48B921680A6C22F480229A
:101D30000A6421680A6CA3691A430A642268FF21B5
:101D4000516208B110BD00200121617710BD000073
:101D5000BFFF8FFF10B586B0044618216846FEF716
:101D6000CDFC0949206888420CD102200090C001B6
:101D700004906846FFF7CAFB08B1FEF722FF03494B
:101D80000120086006B010BD002800403C0E47420C
:101D900070B50446007F0B46012819D0012626772E
:101DA00002206077B2B19878D97840EA0145587836
:101DB0001978000240EA413005432168CA20486290
:101DC000216853204862204601F096FCD0B122E001
:101DD000022070BD5878C10603D500F0EF000A302C
:101DE0005870D87801F07CFC0204587801F078FC37
:101DF00042EA0022987801F073FC0243187842EA24
:101E00004035DAE70748054020684560204601F084
:101E100097FC00B966772268FF2151620021217783
:101E200070BD00003FFFFF002DE9F0410446007F38
:101E30000D46012823D04FF0010884F81C800220B1
:101E400060772068002780684FEA4060D2B10028A0
:101E500000DBEF70A878297840EA01466878E978D5
:101E6000000240EA815006432168CA204862216886
:101E700053204862204601F03FFCB8B12CE002201C
:101E8000BDE8F081002800DBEF70287801F028FC25
:101E90000204687801F024FC42EA0022A87801F0EC
:101EA0001FFC0243E87842EA8056DDE70D48064011
:101EB000206806602068816821F480218160D5E96E
:101EC0000301084321688A6810438860204601F0B6
:101ED00037FC08B984F81D802268FF2151622777FA
:101EE000CEE700007F7F7F0070B504460B48216875
:101EF000C860FFF745FA05464FF47A7607E000BF61
:101F0000FFF73EFA401BB04201D9032070BD2068A4
:101F1000C0688006F4D5002070BD00005F3F01005E
:101F2000704770B5040009D0606A002540B1256192
:101F30006561A56294F8510040B10CE0012070BDCC
:101F40006068B0F5827FF4D0E561F2E784F8505024
:101F5000204600F045F8022084F85100206801680E
:101F600021F040010160A088218900F4827001F411
:101F700004410843A18901F400610843217C01F078
:101F800002010843217D01F001010843218B01F486
:101F900000710843217F01F03801084394F82010B4
:101FA00001F080010843218D01F4005108432168AC
:101FB0000860A069042101EA104094F8241001F09F
:101FC00010010843216848602068C16921F400615C
:101FD000C1616565012084F85100002070BD0000DA
:101FE00070B586B0064614216846FEF787FB1F4988
:101FF0003068884238D11E480025016841F480517C
:102000000160006800F48050059019481438016898
:1020100041F0020101600068694600F0020005908D
:10202000282000900220CDE901050320039005201F
:1020300004901048FFF7A2F8104C0F4820604FF0B2
:10204000806060604020C4E902050001C4E9040525
:10205000A561E561256220466562FEF7EDFF08B1E6
:10206000FEF7AFFDB464A66306B070BD003001405A
:102070004438024000040240406402407C030020D7
:102080002DE9F84F984616468A460446FFF778F938
:10209000814694F8510001281ED1BAF1000F73D087
:1020A000002E71D094F85000012815D0012784F833
:1020B0005070032084F8510000256565C4F830A0F5
:1020C000A686E686A563A587E58765642564A0687E
:1020D000B0F5004F03D00CE00220BDE8F88F206877
:1020E000016821F0400101602068016841F48041ED
:1020F000016020680168490603D4016841F040018D
:102100000160E068B0F5006F606803D048B3012E4D
:1021100027D047E008B1012E1FD1206B216800882D
:10212000C86006E020688168890709D5216B0988A5
:10213000C160206B801C2063E08E401EE0860CE0B6
:10214000FFF71EF9A0EB0901414503D3B8F1FF3FAA
:1021500003D035E0B8F1000F32D0E08E0028E1D195
:1021600023E0206B21680078087306E0206881680E
:1021700089070AD5216B09780173206B401C206305
:10218000E08E401EE0860DE02BE0FFF7F9F8A0EBB3
:102190000901414503D3B8F1FF3F03D010E0B8F186
:1021A000000F0DD0E08E0028E0D14A46414620467F
:1021B00001F068FB08B120206065A06830B109E03B
:1021C00084F8517084F85050032086E72068C16875
:1021D0008068009084F8517004F8505F60680028AF
:1021E000F3D0012079E7000070B5044690F8510063
:1021F00001281CD1C9B1C2B194F85000012816D0F1
:10220000012084F85000032084F851000025656502
:102210002163A286E286A56365642564A587E587B8
:10222000A068B0F5004F04D00DE0012070BD022081
:1022300070BD2068016821F04001016020680168DC
:1022400041F480410160A16C17480864A16C1748F3
:10225000C863A16C1648C864A06C0565E38E22684B
:10226000216B0C32A06CFEF751FF30B1606D40F075
:102270001000606584F85050D7E72068016849066F
:1022800003D4016841F04001016084F85050206897
:10229000416841F0200141602068416841F002013D
:1022A0004160002070BD0000173800082138000888
:1022B000F5370008704770474FF0E021042808699F
:1022C00003D020F004000861704740F00400FAE7F2
:1022D00010B5401EB0F1807F01D3012010BD4FF03A
:1022E000E02460610F21601701F00CFE0020A06166
:1022F00007202061002010BD7047704770B590F82E
:102300003C20012A2CD0012480F83C40022280F895
:102310003D2003685A689D6822F070060A683243BF
:102320005A60104B02689A420ED0B2F1804F0BD027
:102330000D4B9A4208D00D4B9A4205D00C4B9A4255
:1023400002D00C4B9A4204D1496825F0800319430E
:10235000916080F83D40002180F83C10084670BD37
:10236000022070BD00000140000400400008004051
:10237000000C00400040014010B5040003D094F868
:102380003D0010B107E0012010BD002084F83C00A2
:10239000204600F01EF8022084F83D00211D206830
:1023A00001F07AFB012084F8460084F83E0084F8AE
:1023B0003F0084F8400084F8410084F8420084F82B
:1023C000430084F8440084F8450084F83D00002070
:1023D00010BD704790F83D10012901D001207047D1
:1023E000022180F83D100168CA6842F00102CA600B
:1023F00000680E4988420ED0B0F1804F0BD00C49D6
:10240000884208D00B49884205D00B49884202D047
:102410000A49884204D1816801F00701062903D0E6
:10242000016841F001010160002070470000014097
:102430000004004000080040000C00400040014043
:1024400070472DE9F04104460068C66805694FF001
:102450000007A90713D5B10711D5F91E01610120A5
:102460002077206880698007204602D0FFF7E8FFC8
:1024700004E000F0A7F8204600F04CF92777680741
:1024800016D5700714D521686FF00400086102208A
:1024900020772068806910F4407F204602D0FFF743
:1024A000CFFF04E000F08EF8204600F033F92777E4
:1024B000280715D5300713D521686FF0080008618B
:1024C000042020772068C0698007204602D0FFF7EB
:1024D000B7FF04E000F076F8204600F01BF92777FC
:1024E000E80616D5F00614D521686FF010000861D3
:1024F000082020772068C06910F4407F204602D071
:10250000FFF79EFF04E000F05DF8204600F002F9BE
:102510002777E80708D0F00706D021686FF00100A0
:102520000861204600F050F9280608D5300606D587
:1025300021686FF0800008612046FFF7DDFE680625
:1025400008D5700606D521686FF040000861204666
:1025500000F044F9A8060AD5B00608D521686FF046
:10256000200008612046BDE8F041FFF7C6BEBDE887
:10257000F081000010B586B0044614216846FEF7CD
:10258000BDF80D492068884214D10C48002102682A
:1025900042F002020260006800F002000590012093
:1025A00000900220CDE90101CDE9031069460448FD
:1025B000FEF7E4FD06B010BD0004004030380240D4
:1025C00000040240704770B5044690F83C000026B5
:1025D0000D4601280FD0012084F83C006AB1042A7E
:1025E0001DD0082A2FD00C2A3FD00126002084F8C5
:1025F0003C00304670BD022070BD206801F0AAFA90
:102600002068816941F0080181612068816921F0B9
:1026100004018161206881692A69114311E0206801
:1026200001F0C0FA2068816941F40061816120688D
:10263000816921F480618161206881692A6941EAA8
:1026400002218161D2E7206801F0D8FA2068C169CF
:1026500041F00801C1612068C16921F00401C16134
:102660002068C1692A69114311E0206801F0F2FA7B
:102670002068C16941F40061C1612068C16921F429
:102680008061C1612068C1692A6941EA0221C16192
:10269000ACE710B5040003D094F83D0010B107E09A
:1026A000012010BD002084F83C00204600F01EF8F8
:1026B000022084F83D00211D206801F0EDF9012081
:1026C00084F8460084F83E0084F83F0084F8400017
:1026D00084F8410084F8420084F8430084F8440000
:1026E00084F8450084F83D00002010BD08B500685E
:1026F0000649884208D10648016841F0020101609C
:10270000006800F00200009008BD000000040040D6
:10271000403802407047000010B50446022249B11B
:1027200004290ED0082913D094F84100012816D0AE
:10273000012010BD94F83E000128F9D184F83E2014
:102740000FE094F83F000128F2D184F83F2008E020
:1027500094F840000128EBD184F8402001E084F88F
:1027600041200122206801F0E7F9124920688842DF
:1027700003D1426C42F400424264206888420ED089
:10278000B0F1804F0BD00C49884208D00B498842E9
:1027900005D00B49884202D00A49884204D1816899
:1027A00001F00701062903D0016841F00101016031
:1027B000002010BD0000014000040040000800405F
:1027C000000C00400040014000680349884201D1EC
:1027D000FEF7DCBD70470000000001407047704705
:1027E00070470000F8B5016804460868CA684B697C
:1027F00010F00F0F4FF0000559D003F0010602F45E
:102800009077374365D0C10705D0D10503D5616CFA
:1028100041F001016164410705D5D90703D0616C1E
:1028200041F002016164810705D5D90703D0616CCD
:1028300041F004016164010707D502F02001314332
:1028400003D0616C41F008016164616C00293AD0E9
:10285000800604D5900602D5204601F04BFA206888
:102860004069616CC0F38010090700D460B3204652
:1028700001F019FA20684069400621D5206814301B
:1028800050E8001F21F0400140E80012002AF5D175
:10289000E06BA8B172490165E06BFEF7EAFA002827
:1028A00011D0E06B016D01B0BDE8F0400847830630
:1028B0000FD593060DD52046BDE8F84001F01ABAB1
:1028C0002046FFF78DFFF8BD2046FFF789FF6564BE
:1028D000F8BD266B2023012E7ED1C6067CD5D606F8
:1028E0007AD508684868009048694FF002064006AB
:1028F0004DD5E26B106840684FF480770004000CFF
:102900003AD0A18D814237D9E085D069B8422DD027
:1029100020680C3050E8001F21F4807140E800125C
:10292000002AF5D12068143050E8001F21F0010181
:1029300040E80012002AF5D12068143050E8001F4A
:1029400021F0400140E80012002AF5D184F842301D
:10295000256320680C3050E8001F21F0100140E88A
:102960000012002AF5D1E06BFEF73AFA6663A08DFB
:10297000E18D401A81B206E0A18D8142A8D1D069D3
:10298000B842A5D166632046FFF729FFF8BDA08DA8
:10299000E18D401A81B2E08D0028F7D00029F5D0F2
:1029A00020680C3050E8002F22F4907240E8002795
:1029B000002FF5D12068143050E8002F22F00102DA
:1029C00040E80027002FF5D184F8423025632068C5
:1029D0000C3050E8002F00E006E022F0100240E842
:1029E0000023002BF3D1CDE705062BD5150629D5FD
:1029F00094F841002128C9D1A068B0F5805F01D1C9
:102A00002069B0B1206A411C2162216800784860C9
:102A1000E08C401E0004000CE084B7D12068C1683F
:102A200021F08001C1602068C16841F04001C160AF
:102A3000F8BD206A0088C0F308004860206A801C46
:102A40002062E5E74006F3D55006F1D5CA68204676
:102A500022F04002CA6084F8413000F0AAF8F8BDC4
:102A6000993C000870B5040004D094F8410000259A
:102A700010B106E0012070BD84F84050204600F0FF
:102A800023F8242084F841002068C16821F4005113
:102A9000C160204601F090F92068016921F490415D
:102AA00001612068416921F02A0141612068C16803
:102AB00041F40051C1606564202084F8410084F82D
:102AC00042006563002070BD2DE9F04186B00646E6
:102AD00014216846FDF712FE30493068884259D10A
:102AE0002F480024016841F010010160006800F0E7
:102AF000100005902A481438016841F00101016076
:102B00000068694600F0010005904FF4C060009035
:102B10000220CDE9010403200390072004902148FE
:102B2000FEF72CFB214D20484FF000672860C5E9D7
:102B300001744FF48068C5E903486C61AC61EC61D5
:102B40002C6228466C62FEF777FA08B1FEF739F876
:102B5000F563AE63154D144860353030E5E8020783
:102B60004020A5E81101114845F814496030AC61D6
:102B7000EC612C626C62FEF75FFA08B1FEF721F897
:102B8000B563002211462520AE63FEF78DFC25209B
:102B9000FEF77CFC06B0BDE8F081000000100140AB
:102BA0004438024000000240886402406C04002067
:102BB000704770470020704770477047FEE700007D
:102BC00088B000242B4F4FF48C7818254FF6FF76F1
:102BD0004FF47A794FF4FA7A1EF02EFF0821264836
:102BE000FFF79AFD04F0E2FC386A804700F052FAE1
:102BF00000214346F0220846009400F002FA0A2021
:102C000004F0EAFC322000F01BFBCDE9004533461E
:102C10001AA28C214820029400F0A8FB042003464D
:102C20000090022218A103A8FDF722FCCDE900457F
:102C3000334603AABC212220029400F097FB4846A9
:102C400004F0CAFCBD23F02274210020009400F09F
:102C5000D8F913F0C5F918F017FA18F039FA1EF080
:102C6000CFFB1FF009FC00201EF018FE50461BF0A1
:102C700057FBB1E710000020DC03002057656C63B0
:102C80006F6D6521000000004F562D576174636819
:102C9000205625642E25642E2564000070B5064656
:102CA0000824002500F073FD13E06806050E0021DE
:102CB000304600F05AFD022004F09BFC0121304612
:102CC00000F053FD012004F094FC304600F056FD66
:102CD0000543641EE4B2E8D20021304600F045FD11
:102CE000304600F072FD284670BD10B50446002144
:102CF00000F062FD012004F07CFC0121204600F080
:102D000034FD012004F075FC0021204600F02DFD6B
:102D1000BDE81040012004F06CBC000070B50C460A
:102D20000646082519E000BF00F01FFD022004F050
:102D300060FC04F08001304600F03EFD012004F00C
:102D400058FC6006040E012004F053FC01213046BB
:102D500000F00BFD012004F04CFC6D1EEDB24FF0B5
:102D600000013046E0D200F000FDBDE870400220D6
:102D700004F03FBC10B50446012100F01DFD012008
:102D800004F037FC0121204600F0EFFC012004F0A4
:102D900030FC0021204600F0E8FCBDE81040022095
:102DA00004F027BC10B50446012100F005FD022007
:102DB00004F01FFC0121204600F0D7FC012004F0A4
:102DC00018FC0021204600F0F7FC012004F011FC63
:102DD0000021204600F0C9FCBDE81040012004F0AD
:102DE00008BC10B50446002100F0BFFC022004F02E
:102DF00000FC0021204600F0DFFC012004F0F9FB7C
:102E00000121204600F0B1FC012004F0F2FB012179
:102E1000204600F0D1FCBDE81040012004F0E9BBE1
:102E200070B50546052400F0B2FC0121284600F0EB
:102E30009CFC05E0641EA4B2012004F0DAFB84B11E
:102E4000284600F09BFC0028F4D1284600F0BDFC89
:102E50000021284600F089FC022004F0CAFB002073
:102E600070BD284600F0B1FC2846FFF7BAFF0120EC
:102E700070BD00002DE9F0411D4617460C46804606
:102E8000069EFFF78FFF6006010E4046FFF746FFE4
:102E90004046FFF7C5FF28B14046FFF7A2FF0120DB
:102EA000BDE8F08139464046FFF738FF4046FFF75E
:102EB000B7FF4046FFF776FF012000EB4400C1B2A8
:102EC0004046FFF72BFF4046FFF7AAFF00246F1E86
:102ED0000AE000BFFFF7E2FE3055BC4202DA40468E
:102EE000FFF703FF641CE4B2AC424046F2D3FFF7A5
:102EF00041FF4046FFF775FF0020D1E770B5164649
:102F00000C460546FFF74EFF6006010E2846FFF708
:102F100005FF2846FFF784FF31462846FFF7FEFEEF
:102F20002846FFF77DFF2846FFF73CFF012000EB16
:102F30004400C1B22846FFF7F1FE2846FFF770FFB4
:102F40002846FFF7ABFE04462846FFF713FF284646
:102F5000FFF747FF204670BD2DE9F04104461D46AE
:102F600016460F462A2000F02FFA204600F01CFAE1
:102F7000304600F019FA2B2000F026FA384600F00F
:102F800013FA284600F010FABDE8F0412C2000F0BA
:102F90001BBA000070B55D1A141A641C6D1C143342
:102FA00014316C439BB289B2049EFFF7D5FF0D4DDF
:102FB0004FF40060E8602868016841F40061016036
:102FC000A2B231462846FFF70FF90748006841686A
:102FD0000029FCD10020E8602868016821F4006124
:102FE000016070BD240300207C03002010B514464E
:102FF0000B460246FFF7B0FF2046BDE8104000F048
:10300000D3B92DE9F04780461F4603F1130083B280
:103010001646501E82B20C4601F1140081B24046A1
:10302000DDF82090FFF798FF0AE0454604E04846A7
:1030300000F0BAF96D1CADB2B542F8D3641CA4B26D
:10304000BC42F2D3BDE8F08730B587B014216846A2
:10305000FDF754FB0D48016841F002010160006872
:103060004FF4607400F0020005900120CDE90040AB
:103070000320074D039069462846FEF77FF801229A
:1030800021462846FEF777F907B030BD30380240B8
:103090000004024010B5FFF7D7FF684C00224FF440
:1030A00080712046FEF767F9002280212046FEF756
:1030B00062F9642004F090FA012280212046FEF794
:1030C0005AF9642004F088FA112000F07DF9782084
:1030D00004F082FA362000F077F9002000F08AF937
:1030E0003A2000F071F9052000F084F9B22000F0D8
:1030F0006BF90C2000F07EF90C2000F07BF9002029
:1031000000F078F9332000F075F9332000F072F9FF
:10311000B72000F059F9352000F06CF9BB2000F021
:1031200053F9192000F066F9C02000F04DF92C2069
:1031300000F060F9C22000F047F9012000F05AF9D0
:10314000C32000F041F9122000F054F9C42000F02F
:103150003BF9202000F04EF9C62000F035F90F2091
:1031600000F048F9D02000F02FF9A42000F042F937
:10317000A12000F03FF9E02000F026F9D02000F077
:1031800039F9042000F036F90D2000F033F9112050
:1031900000F030F9132000F02DF92B2000F02AF96F
:1031A0003F2000F027F9542000F024F94C2000F0D3
:1031B00021F9182000F01EF90D2000F01BF90B205A
:1031C00000F018F91F2000F015F9232000F012F983
:1031D000E12000F0F9F8D02000F00CF9042000F014
:1031E00009F90C2000F006F9112000F003F9132072
:1031F00000F000F92C2000F0FDF83F2000F0FAF874
:10320000442000F0F7F8512000F0F4F82F2000F0EF
:10321000F1F81F2000F0EEF81F2000F0EBF820205E
:1032200000F0E8F8232000F0E5F8212000F0CCF8C9
:10323000BDE81040292000F0C7B80000000402409B
:10324000411F5F2909D84FF4967110FB01F06421EA
:10325000B0FBF1F001490968C8637047DC03002046
:103260002DE9FF4F81B00446DDF83C9000904FEA15
:1032700059074FF00008780700D0012000EBD70075
:1032800000FB09FB203AD0B203900298029948440F
:10329000401E83B2E019401E82B22046FFF75CFE5A
:1032A000002553E0B9F10C0F2AD0B9F1100F2ED040
:1032B000B9F1180F2ED0B9F1200F49D12749039841
:1032C00001EB8010002610F805A0109800284FF0A0
:1032D000010000FA06F000EA0A0022D020B12046E0
:1032E000049A0299FFF782FE641C0098A4B2201A87
:1032F000B84225D10298009C401C80B2029023E085
:103300000398174900EB400001EB8000DAE715490C
:10331000039803E00398144900EB400001EB001010
:10332000D0E708B1049800E00E9800F03DF808F1ED
:103330000100C0B2B0FBF7F1804607FB118050B12D
:10334000761CF6B2082EC0D36D1CADB25D45A9D374
:1033500005B0BDE8F08F4FF00008F5E7084302081C
:10336000D4260208482B0208383102082DE9FE4F06
:103370009946DDE90D6714468A460546DDF830803A
:103380000CE0CDF800804B4651462846CDE9016758
:10339000FFF766FF05EB560085B2641C2278002A11
:1033A000EFD1BDE8FE8F000008B5010A8DF80010CE
:1033B0008DF801000123022269460248FEF760FEF3
:1033C00008BD00002403002070B5094D06464FF4E7
:1033D0000074002221462846FDF7CDFF304600F05C
:1033E00009F821462846BDE870400122FDF7C3BF19
:1033F0000004024001B501231A4669460148FEF760
:103400003FFE08BD2403002008B500200A4C8DF8BB
:1034100000004FF47A7500200EF072FCA84205D22D
:1034200000231A466946A0681AF0B6FF19F09AFE02
:1034300001201AF075FFEEE7040000207FB500249C
:1034400015480094019402941249039401604FF4CA
:103450008031C0E901140461047680F820400F49EE
:10346000C0E90A140125C561C46080F83040456197
:10347000FDF75CFC08B1FDF7A4FB0095CDE9015414
:1034800069460548FDF7A0FB002801D0FDF799FB30
:103490007FBD000000200140BC0200200100000FA1
:1034A000114808B5016841F48001016000680022FC
:1034B00000F48000009011463A20FDF7F5FF3A2015
:1034C000FDF7E4FF002211464420FDF7EDFF442004
:1034D000FDF7DCFF002211464620FDF7E5FFBDE8C1
:1034E00008404620FDF7D2BF3038024010B500F04A
:1034F000F1FC044A002104481AF082FF03490860E5
:1035000010BD000048260208AD3900080000002068
:103510000D4808B5016841F004010160016801F03F
:1035200004010091016841F001010160016801F0AE
:1035300001010091016841F002010160006800F0A2
:103540000200009008BD00003038024010B586B07F
:1035500014216846FDF7D2F8234800242149059438
:10356000C0E900147F218160FF21C0E90314446198
:103570008461FEF7A1FB08B1FDF723FB11208DF854
:10358000000059208DF8010055208DF802000394A9
:103590000122694614480494FEF746FC08B1FDF781
:1035A00010FB07208DF8140005208DF81500212050
:1035B0008DF8160023208DF81700012205A90A486E
:1035C000FEF7E6FB08B1FDF7FCFA00224FF4FA61C2
:1035D0000548FEF707FB002801D0FDF7F2FA06B018
:1035E00010BD00000028004004030020104810B562
:1035F0000E4901604FF48271416000210222816016
:10360000C0E90312012242615202C0E906210162AF
:10361000416281620A21C162FEF783FC002803D067
:10362000BDE81040FDF7CDBA10BD000000300140EC
:103630002403002010B58AB0002407941C2168469A
:103640000894FDF75BF81648144901606321C0E94E
:1036500001144FF49671C0E903148461FFF719F85F
:1036600008B1FDF7AEFA079407A90D480894FEF7D4
:1036700045FE08B1FDF7A5FA6020CDE900040294EB
:103680000822694606480494FEF79DFF08B1FDF73D
:1036900098FA0348FEF76EFF0AB010BD0004004020
:1036A000DC0300200C4810B50A4901604FF41651A4
:1036B0004160002181600C22C160C0E90412816177
:1036C000C161FFF7CFF9002803D0BDE81040FDF736
:1036D00078BA10BD0010014024040020FEE7FEE788
:1036E000002102E00A38C0B2491C0A28FAD20907B0
:1036F00040EA1160704700002DE9F041044600687F
:103700000025C168490618D4C16841F08001C16034
:10371000FDF736FE06464FF47A78042707E000BF2F
:10372000FDF72EFE801B404501D9677701252068F3
:10373000C068400601D4002DF2D02846BDE8F081D3
:1037400070B5044600680025C16821F08001C160A1
:1037500020688068800606D42046FEF7C5FB10B1BD
:10376000042060770125284670BD4289406811B168
:103770008169114300E011048161704710B501892E
:103780000068FDF7EBFD012800D0002010BD10B54A
:1037900086B0044614216846FCF7B0FF20890090EB
:1037A00000200190012002900220039069462068C9
:1037B000FDF7E4FC06B010BD0289006811B1816913
:1037C000114300E011048161704710B586B00446D2
:1037D00014216846FCF792FF208900901120019087
:1037E000002002900220039069462068FDF7C6FC85
:1037F00006B010BD10B5806B01684A6822F0030264
:103800004A60416D41F010014165012180F851107D
:10381000FEF786FB10BD10B5806BFEF74CFD10BDAA
:1038200038B50546846BFDF7ABFD02462868006895
:10383000C00523D42068416821F020014160206840
:10384000416821F0020141606421204600F01AF82D
:1038500018B1606D40F020006065A068002118B9C3
:103860002068C26880680090E186012084F85100D9
:10387000606D18B12046FEF753FB38BD2046FEF7B9
:1038800019FD38BDF8B515460E460B4600920446A4
:103890000122022100F02CF8A0B913481349006856
:1038A000B0FBF1F04FF47A71484300906068B0F5D6
:1038B000827F0DD13346002280212046009500F002
:1038C00017F870B1606D40F0200060650320F8BD0E
:1038D000009830B1401E009020688068C043000608
:1038E000F6D50020F8BD00009400002000366E01DF
:1038F0002DE9F8431E46914688460446089DFDF78B
:103900003FFD401B351AFDF73BFD07462648006882
:10391000C0F3CB3068430AE0701C09D0FDF730FDDE
:10392000C01BA8420FD275B10098B8B3401E0090DA
:103930002068816838EA010033D000214945EBD185
:103940000020BDE8F8832068416821F0E001416073
:103950006068B0F5827F0BD1A068B0F5004F02D04F
:10396000B0F5806F04D12068016821F0400101604A
:10397000A06AB0F5005F09D12068016821F4005108
:1039800001602068016841F400510160012084F861
:103990005100002084F850000320D2E7FFE7002503
:1039A000C6E70121CAE7000094000020064D4FF44D
:1039B00000544FF4FA7621462846FDF7D4FC3046F1
:1039C0001AF0AEFCF7E700000008024010B54FF017
:1039D000E02000691EF058FC012803D0BDE810402B
:1039E0001EF086B910BD000030B593B03021684696
:1039F000FCF784FE14210CA8FCF780FE1D4800246F
:103A0000016841F080510160006800F08050119021
:103A10001948016841F4404101600068022500F442
:103A20004040119006200090012002900390102049
:103A3000049006950820CDE907406420CDE90905EA
:103A400004200B906846FDF717FF08B172B6FEE739
:103A50000F20CDE90C054FF48050CDE90E40032135
:103A60000CA81094FDF7FCFD002801D072B6FEE70B
:103A700013B030BD40380240007000400248016879
:103A800041F470010160704788ED00E00148FEF7E5
:103A9000D8BC00002C050020F0B502681F4B204C5C
:103AA000204D214E4FF0804C984207D0604505D004
:103AB000A04203D0A84201D0B04203D122F0700747
:103AC0004A683A43984210D060450ED0A0420CD0CC
:103AD000A8420AD0B04208D0144CA04205D0144CE1
:103AE000A04202D0134CA04203D122F44074CA6811
:103AF00022434C6922F0800222438C68C4620C6825
:103B00008462984201D109690163016841F00401AE
:103B10000160012141610260F0BD00000000014030
:103B20000004004000080040000C0040004001403C
:103B3000004401400048014010B501F01F0301217D
:103B4000046A99408C430462016A9A4011430162FD
:103B500010BD000030B5036A026A22F00102026261
:103B60004268846924F073050C682C4323F0020535
:103B70008B682B430A4DA8420BD123F00805CB6874
:103B800022F440722B434D6923F0040315438A69E4
:103B90002A434260846149684163036230BD00008A
:103BA0000000014030B5026A036A23F0100303628B
:103BB000436884690D6824F4E64444EA05248D686A
:103BC00022F0200242EA05120B4DA8420ED1CD6828
:103BD00022F0800242EA05124D6923F4406343EA71
:103BE00085038D6922F0400243EA850343608461C6
:103BF00049688163026230BD0000014030B5036A4C
:103C0000026A22F4807202624268C46923F400737B
:103C100024F073050C682C438D6843EA05230C4D92
:103C2000A8420ED1CD6823F4006343EA05234D6911
:103C300022F4405242EA05128D6923F4806342EA7D
:103C400005124260C4614968C163036230BD00006F
:103C50000000014030B5046A026A22F48052026218
:103C60004268C3690D6823F4E64343EA05238D687F
:103C700024F4005444EA0534064DA84204D14D69A9
:103C800022F4804242EA85124260C36149680164BD
:103C9000046230BD0000014010B5806B0021C18579
:103CA000FEF79EFD10BD01680C3151E8002F22F493
:103CB000907241E80023002BF5D10168143151E8DE
:103CC000002F22F0010241E80023002BF5D1016B07
:103CD000012909D101680C3151E8002F22F01002AE
:103CE00041E80023002BF5D1202180F8421000216B
:103CF0000163704708B590F84210222901D00220D4
:103D000008BD82684FF480539A4201D1016921B104
:103D1000816A9A421BD04AB10AE00268816A5268FD
:103D2000C2F308020A80816A891C08E0026972B144
:103D30000268526802F07F020A70816A491C81623F
:103D4000C18D491E0904090CC18503D01BE002681E
:103D50005268F1E70168CA6822F02002CA6001686F
:103D6000CA6822F48072CA6001684A6922F00102BE
:103D70004A61202180F8421000214163026B012A30
:103D800003D0FEF715FF002008BD016301680C3168
:103D900051E8002F22F0100241E80023002BF5D15A
:103DA00001680A68D20602D50A6849680091818DC7
:103DB000FEF715FDE7E7000070B5044600680169ED
:103DC000E26821F44051114301612169A068E26970
:103DD00008436169114308432168CA6849F20C63CA
:103DE0009A430243CA6020684169A26921F4407184
:103DF0001143416131492068884202D030498842EC
:103E000002D1FDF7F7FC01E0FDF7E4FCE2690023D5
:103E1000192164253226B2F5004F626828D0A0FB34
:103E20000101930F9200FCF7ABFA0146B0FBF5F0ED
:103E30006FF01802504301EB800006EB0010B0FB5E
:103E4000F5F000F0F002B1FBF5F002EB0012B1FB6F
:103E5000F5F06FF01803584301EB800006EB0010FB
:103E6000B0FBF5F000F00F0021681044886070BDD1
:103E7000A0FB010192185B41FCF782FA0146B0FBFE
:103E8000F5F00201B1FBF5F06FF01803584301EBB8
:103E9000800006EBC000B0FBF5F000F0F80002EB8C
:103EA0004002B1FBF5F0584301EB800006EBC00087
:103EB000B0FBF5F000F00700D6E70000001001406D
:103EC000001401400148FEF78DBC000024040020CE
:103ED000FEE7000010B5074A002107481AF090FAE3
:103EE000064C044A00212060243205481AF088FA62
:103EF000606010BD6C260208C12B00080400002081
:103F0000093400080907090E002804DB00F1E0204D
:103F100080F80014704700F00F0000F1E02080F8F6
:103F2000141D704770B5044600256FF02F0608E099
:103F30002068411C2160007805EB850106EB4101FA
:103F400045182068007800F004F80028F0D12846D1
:103F500070BD3038092801D8012070470020704713
:103F600010B54021074801F081F800220A210648D7
:103F700019F0C6F8054CA06002F032F8002020705D
:103F800010BD0000C4520020896000081802002003
:103F900070B5B1F90030B2F90040A34200DC23460D
:103FA0000380B1F90250B2F90240A54200DD2C466F
:103FB0004480B1F90460B2F90450AE4200DA3546EB
:103FC0008580B1F90610B2F90620914200DB114656
:103FD000C1800120AB4201DC8C4200DD002070BDBD
:103FE000F8B50D460446B0F90000B1F900101646C8
:103FF000884247DBB4F90210B5F90220914241DB57
:10400000B4F90410B5F9042091423BDCB4F9061070
:10401000B5F90620914235DC96B3ADF80000608812
:10402000ADF8020032466946284600F099F80028AB
:1040300027D0A088ADF800006088ADF802003246B5
:104040006946284600F08CF800281AD02088ADF880
:104050000000E088ADF8020032466946284600F0CC
:104060007FF800280DD0A088ADF80000E088ADF8FA
:10407000020032466946284600F072F8002800D057
:104080000120F8BD0020F8BDB0F90020B1F90430DE
:104090009A4213DCB0F90420B1F900309A420DDBEA
:1040A000B0F90220B1F906309A4207DCB0F90600F7
:1040B000B1F90210884201DB0120704700207047EF
:1040C000F8B50D460446B0F90400B1F900101646E3
:1040D000884243DBB4F90600B5F9021088423DDBA3
:1040E000B4F90000B5F90410884237DCB4F90210C5
:1040F000B5F90620914231DC76B3ADF80000608856
:10410000ADF8020032466946284600F029F818BB8F
:10411000A088ADF800006088ADF80200324669461C
:10412000284600F01DF8B8B92088ADF80000E088F6
:10413000ADF8020032466946284600F011F858B939
:10414000A088ADF80000E088ADF80200324669466C
:10415000284600F005F808B10020F8BD0120F8BDA0
:104160002DE9FC4114460E46B1F90020B0F90010CB
:1041700005468A423ADBB5F90400824236DCB6F9DC
:104180000270B5F90220974230DBB5F906309F4244
:104190002CDC002C75DD401A9A1A401C521C00B20F
:1041A00012B200EBD07002EBD2724010521090426B
:1041B00000DB1046844200DD0446ADF8001028887C
:1041C00000222044ADF804006888ADF80200688839
:1041D00031462044ADF806006846FFF7C1FF40B104
:1041E000BDF804002044ADF804003FE00020BDE825
:1041F000FC81E8880022001BADF80200E888ADF8D9
:10420000060031466846FFF7ABFF28B1BDF8040051
:104210002044ADF8040011E0A8880022001BADF88E
:104220000000A888ADF8040031466846FFF798FF03
:1042300050B1BDF80000001BADF80000BDF8020051
:10424000001BADF8020016E06888ADF8020068882F
:1042500000222044ADF8060031466846FFF780FF93
:1042600070B1BDF80000001BADF80000BDF80600FD
:104270002044ADF806003146684616F0E9FEB6E780
:10428000FFE70120B3E710B5B1F90040B2F9003003
:104290009C4200DA23460380B1F90240B2F90230B1
:1042A0009C4200DA23464380B1F90440B2F904305D
:1042B0009C4200DD23468380B1F90610B2F9062046
:1042C000914200DC1146C18010BD0000FEB50746DA
:1042D00018F00CFF0025354C0646009537B1F868FC
:1042E0006060384618F0DAFF606802E00DF0DAFC32
:1042F0006060006916F048FE6068406908B116F019
:1043000043FE6068C06916F03FFE6068006A16F000
:104310003BFE60680169E1B317F0BEF817F03AF8A8
:104320006068B0F8501199B30168097C890715D508
:104330000DF032FD401E07B260680DF0CBFC401E50
:1043400003B20022114601A800970CF085FA6068BC
:1043500001A90268926B516004F0B2F860684FF4F2
:104360008071303012F08AFF6068202100F598706B
:1043700012F084FF6068A0F85051304618F0B0FE8B
:10438000009060680068436A13B1226800999847FA
:1043900000E007E012F0B4FD00F036F8BDE8FE40A2
:1043A00000F006B8A0F85051FEBD000058010020F2
:1043B00070B50A4D002400BFC4EBC40655F82600B2
:1043C00008B112F011FE05EB86001C2112F056FF19
:1043D000641CE4B2042CEFD370BD0000A053002095
:1043E000084949680AE04A68824202D00A68824263
:1043F00003D10A7E42F001020A7649690029F2D10E
:10440000704700002C010020704700000421014883
:1044100000F02CBEB85200201C21014800F026BE3E
:10442000D05200202DE9FF5F0446DDE90E0613B9E6
:10443000B0F5807F7ED0B6F900504FF0FF376D4267
:10444000454307EB25252DB22580B6F902C0CCF1F6
:10445000000C0CFB00FC07EB2C273FB26780B6F981
:1044600000C0A1EB0C0141434FF0020C0CEB2121E9
:1044700009B2A180B6F90280A2EB080242430CEB1C
:10448000222000B2E080002B7ED04FF00A0A93FB7E
:10449000FAF5684200EB800003EB400705F10109E3
:1044A00028B219F037F800900FFA89F019F032F8B5
:1044B00083465A3528B219F02DF8804609F15A0082
:1044C00000B219F027F80146009AC7F10A0000FB74
:1044D00002F300FB08F00BFB073301FB070193FB22
:1044E000FAF291FBFAF04FEA601AB4F90010B4F94D
:1044F00002000AFB01FCCDF80CC05511378805FB02
:1045000010C207EBA2220FFA82F905FB01F2BB46AB
:10451000029277880AFB002107EBA1210BB2B4F9C4
:104520000410BE460AFB01FC05FB10C20BEBA222E5
:1045300016B200E02FE005FB01F7CDE9007CB4F9ED
:104540000680DDF80CC00AFB007005FB18C1DDF821
:1045500004C0009F05FB18C5029A0AFB087C0AFBF1
:1045600008220BEBA1210EEBAC270EEBA02009B229
:104570000EEBA2220BEBA5250FFA87FC00B212B2BC
:104580002DB24F46494500E00EE000DA0F46B54235
:1045900016DAA84615E000202080491E6080A18020
:1045A000521EE280BDE8FF9F32882A442280728832
:1045B0003A44628032881144A180718808444FE0F7
:1045C000B046474504DA4F46494506DA0F4604E04F
:1045D000B54201DA2F4600E0374627804F4649456D
:1045E00000DD0F46B54201DDA84600E0B046474574
:1045F00003DD4D46494505DC01E0B54201DD2946B4
:1046000000E03146A1809A4201DA154600E01D46DD
:10461000844501DA614600E001468D4205DA9A429E
:1046200001DA114606E0194604E0844501DA6146E4
:1046300000E0014661809A4201DD114600E0194622
:10464000844501DD654600E00546A94205DD9A4244
:1046500001DD104604E0184602E0844500DD6046B6
:10466000E0809FE72DE9FE4F0446D0F800B0B0F996
:104670000800E589081AB4F90A10511AD4E9093278
:10468000B5F5807F38D0A589ADB3A66B70434511D1
:104690004E437011266BE16A06FB05F701FB1077AC
:1046A000694306FB001003EBA72902EBA02080461C
:1046B0000612B4F904004FEA2927B8424EDD002F54
:1046C0004CDBB4F90610B14248DD002E46DB94F80D
:1046D00034104A0745D58A0704F1140322D400FB9D
:1046E000067045004FF0020A0BEB050152461846D2
:1046F00012F07AFD27E00DE0256BE66A05FB00F776
:1047000006FB1177464305FB016003EBA70902EBAB
:10471000A000CCE7A56B68434D4303EB601902EBA7
:104720006510C4E700FB067000EB40054FF0030A7C
:104730000BEB05010222184612F056FDE81C584406
:1047400010F8010CA07594F83400C0071FD04FF486
:10475000FC60ADF80000A18A814218D10020BDE8BC
:10476000FE8F32B204F118002369CDE90102002561
:1047700039B2AA468B4610F03DFE0090BDF800000D
:10478000A082DDE90102594610F0CCFDDAE7E07CB9
:1047900078B1A4F83C90A4F83E80A4F84070A4F846
:1047A0004260656484F848A02046BDE8FE4F00F0F2
:1047B00002B80120D3E72DE9F04F044690F83C10F1
:1047C000D0F8009090F83E0087B04FF0FF36702987
:1047D00007DAB4F940203546012A00D5002580319A
:1047E0000DE0902916DDB4F94020B4F9043001251C
:1047F000521C9A4200DB0025A1F27F114942C9B246
:104800008846702809DAB4F94210012900D500263B
:10481000803010E00025FF21F2E790280DDDB4F98B
:104820004210B4F906200126491C914200DB002603
:10483000A0F27F104042C7B201E00026FF27606966
:104840000090A07D0590002083468246049094F855
:104850003400400744D594F84810606C11FB050102
:104860004944022201A812F0BFFCA08894F8481025
:1048700010FB01F0616C022206FB0011494403A801
:1048800012F0B2FCA18894F8480011FB00F1626CB0
:1048900006FB012210FB05901118022202A812F05B
:1048A000A3FC94F83400800761D594F84800626C4A
:1048B00010FB052300EB09010B4413F8013C0493A2
:1048C000A38813FB00F306FB0322114411F801BC7B
:1048D00010FB0500111801EB090010F8010C45E070
:1048E000B4F84000B4F94220284401B204F11800A1
:1048F0008146236910F07EFD0190B4F84200B4F9BE
:104900004010304402B254F8103F484610F072FD97
:104910000390608E2368304402B2208E284401B296
:10492000484610F067FD029094F82400103C800780
:104930001DD5B4F9422034F8400F284401B248464E
:1049400010F0F0FC04906088B4F90010304402B21A
:10495000484610F0E7FC83466088304402B234F8E1
:104960004009284401B2484610F0DCFC824694F825
:10497000340042464546800735D5059810FB08F3BC
:104980000499C8F1FF0011FB0031C1F307211BFBA3
:1049900008F61AFB0060C0F3072011FB07F3C7F10C
:1049A000FF0610FB06331B0AA375022907D802284D
:1049B00003D8002007B0BDE8F08F002702E00228EE
:1049C00000D8FF270598022800D800220498022862
:1049D00000D8FF22BBF1020F00D80025BAF1020F68
:1049E00003D8FF2501E0FF20A075EAB1FF2A04D01B
:1049F000DDE900010CF0B8FF0090BDB1FF2D17D02C
:104A0000DDE902102A460CF0AFFF049097B1FF2FAA
:104A100005D001463A4600980CF0A6FF0090BDF87C
:104A20000000A0820120C5E70198E5E70298ECE7C5
:104A30000398EAE7BDF81000F3E700002DE9F0471E
:104A40000446B0F908000A2700026062B4F90A00BF
:104A50000002A062B4F90C1091FBF7F5684200EB7C
:104A6000800001EB4006684205F1010800B218F031
:104A700051FD8246E84300B218F04CFD8146C5F175
:104A80005A0000B218F046FD0546C8F15A0000B2BF
:104A900018F040FDC6F10A0101FB0AF3024609FBCA
:104AA0000630694390FBF7F002FB061191FBF7F12A
:104AB0004011E06248112063A07C10F048FD94F89A
:104AC000341060F3000184F83410A07C10F02FFD46
:104AD00094F8341060F3410184F83410A07C042869
:104AE00024D0052822D0062820D021F0040100BFC0
:104AF00084F8341021682162A16921F0E00160F39B
:104B00000401A08860F39421E08860F35F51A16103
:104B1000E0894FF4001101EB5001B1FBF0F0A0630C
:104B2000FF20A075208AA082BDE8F08741F0040133
:104B3000DEE700002DE9F04115460E460746114C10
:104B400018F0D4FA80462B4632463946204611F0FA
:104B500043F820B10020A062E06950B110E02C21A0
:104B6000204612F08BFB4FF00040A0620020BDE811
:104B7000F081404618F0B4FAE06108B90120E06124
:104B80002046F4E7F452002010B51421074800F045
:104B90006DFA10F0E7FF40B1054901600549416039
:104BA000054981600549C16010BDFEE7DC52002067
:104BB000915501080D590108855A01085F550108F2
:104BC00070B50D4604461021284612F057FB2068A8
:104BD0000078012804D0022807D0042807D008E074
:104BE000208A2880608A688003E0E06800E00A206C
:104BF000686020684268002A03D02946BDE87040FA
:104C0000104770BDFEB5866A0446BEB9A08A218AE7
:104C10000844A082E08A618A0844E082204608F0C5
:104C2000C6F8060079D020460AF0C8FA0022092109
:104C300030460FF0B9FE607880076ED4208A10B934
:104C4000608A002869D00025ADF80450ADF80850FE
:104C500094F83C0000F00F000328304616D013F003
:104C60005FFE0746304613F035FD03460C200090EA
:104C7000B4F912103A46304607F08CFCADF8080043
:104C8000304613F079FDC10712D017E013F0DCFDB8
:104C90000746304613F078FD024603200090B4F931
:104CA00010103B46304607F075FCADF80400E7E70E
:104CB000BDF90410002901DDADF80450810705D4C9
:104CC000BDF90410002901DAADF80450410705D4FC
:104CD000BDF90810002901DDADF80850000705D422
:104CE000BDF90800002801DAADF8085002AA01A9B0
:104CF00020461AF08CFD0023BDF90820BDF90410F0
:104D0000304615F02BFDA08ABDF804100844A0829F
:104D1000E08ABDF808100844E082FEBD2DE9FC5F82
:104D20000446806A5FEA000B71D094F83C000007EB
:104D30006DD011F00BF8019000684021457E584677
:104D400014F0D1FC4FF0000818B9A4F81A80A4F8A8
:104D50001880584613F0D6FD8246584613F0D9FD08
:104D6000064694F83C004FF0640900F00F000C2850
:104D700002D003284CD09AE0A4F8188056B1B4F9B8
:104D80001A50002710F0E2FF00684946407EC0F14B
:104D9000640022E0608BC5F1640110FB01F191FB1E
:104DA000F9F06083584613F095FC0546584613F019
:104DB000B7FD02460C200090B4F91A102B46584655
:104DC00007F0E8FB6083024600231EE07A1917B261
:104DD00010FB05F292FBF1F215B2002DF6D1ADF801
:104DE0000070A4F81A806A46002120461AF00FFDD0
:104DF00041F6FF72BDF900305142584608F03CF9C7
:104E0000BDF800100123084402B200214CE09AE0F2
:104E1000A4F81A80BAF1000F0AD0B4F9185000278C
:104E200010F094FF00684946407EC0F1640022E023
:104E3000208BC5F1640110FB01F191FBF9F0208397
:104E4000584613F0A1FC0546584613F0FDFC0346F6
:104E500003200090B4F918102A46584607F09AFB30
:104E60002083014600231EE07A1917B210FB05F2D9
:104E700092FBF1F215B2002DF6D1ADF80070A4F856
:104E800018800022694620461AF0C1FC41F6FF72E4
:104E9000BDF900305142584608F066F8BDF80010E0
:104EA0000123084401B20022584615F057FC208B1C
:104EB000002848D1608B002845D1C6B9584613F068
:104EC0002FFD0546584613F005FC002D06DC002892
:104ED0000DDD002D02DA01232A4604E0002806DA5F
:104EE0000123404202B20021584615F037FCBAF1C6
:104EF000000F19D1584613F047FC0546584613F0E9
:104F0000A3FC002D07DC00280EDD002D03DA0123B1
:104F10000022294605E0002806DA0123002240424B
:104F200001B2584615F01AFC0A215846019A0FF0B2
:104F30003BFD6078800706D414F83C0F20F00F008A
:104F4000207044F8148CBDE8FC9F00007FB50E462D
:104F5000040003D10CF0A6FE040023D00025FEB10E
:104F6000ADF80050ADF802500CF0B4FE401EADF8A4
:104F7000040020460CF010FF401EADF806006A4603
:104F8000314602A8FFF704F800280BD02068017C06
:104F9000890708D5DDE90001C4E90C0101202AE0F8
:104FA000A0F850517FBD82690AB102A9904700263E
:104FB0000BE000BF04EBC601002202A83031FFF76E
:104FC0000FF80028EED1761CB6B2B4F85001B0420A
:104FD000F0D880B2202804D204EBC00002A93030FF
:104FE00004E0A4F8505104F1300069460BF094FB42
:104FF000B4F85001401CA4F8500160680028D1D0DA
:1050000018F058F97FBD70B5054600F012F8044657
:105010000CE02146284600F01EF8064621462846A8
:1050200000F071F8204611F0DFFF3446002CF0D17B
:1050300070BD002800D04068704700B503460022CC
:10504000FFF7F7FF03E01846521C00F004F80100D8
:10505000F9D1104600BD0068091D4058704700682E
:1050600040587047002800D0806870470022426096
:10507000C91C21F0030182600160704770B50446CD
:105080000068083011F026FF050013D00146002209
:10509000204619F0B3F829462046626819F0A8F8AE
:1050A000616819B12A46204619F0A8F86560A06821
:1050B00000B9A560284670BD70B504460068083088
:1050C00011F008FF050013D001460022204619F018
:1050D0008FF829462046A26819F090F8A16819B106
:1050E0002A46204619F084F8A560606800B965601A
:1050F000284670BD28B1416809B9806808B1002010
:1051000070470120704770B504000DD0FFF791FF84
:1051100000228842204608D1FFF79DFF6060011EF3
:1051200001D000221EE0A26070BDFFF79BFF884205
:10513000206808440AD10168A16029B12046BDE871
:105140007040002219F054B8626070BD05682046B6
:10515000FFF781FF064602462946204619F048F827
:105160002A4631462046BDE8704019F047B810B5D0
:105170000446006882680AB12146904720680068AA
:10518000002801D02060F5E710BD8068002801D01C
:10519000B0F91600704700002DE9F047074690B0BF
:1051A000408C189E40F00400788490463A849946DA
:1051B0008A463289384614F045F90546A7F820900A
:1051C00032895146384614F03DF90446788CA542A0
:1051D00020F00400788403D12904B1EB044F68D097
:1051E000A7F8208032895146384614F02BF905463D
:1051F0008046A7F820905146384609F0BBF831891F
:1052000000682A4617F0D8F83089602823D147F67D
:10521000FF794D4501D04C451DD1384614F036FA82
:1052200000EBD0704510384614F030FA00EBD07027
:105230004010C84506D1691C431C994200DA00E0C1
:10524000194688464C4506D1691C421C914201DA38
:105250006C1C00E014461948FFF710FF05002BD026
:105260002F60C5E903843089A8806846C5F808A086
:105270000AF06AFD1248FF21CDE900501148029062
:105280001148039000200790CDE9080130880A906A
:1052900070889DF83E1040420B90F0680690002008
:1052A00060F300018DF83E103069059068460AF001
:1052B000BFFD10B0BDE8F087FEE70000E852002017
:1052C0002111020815130208711202081421014865
:1052D000FFF7CCBEE85200202DE9FC5F0025924686
:1052E0008B4606462C46042743F60F0843F60E0964
:1052F00000E100BFF16807EBC400085882017DD4CB
:1053000080B230EA0B0212D05FF0000230EA0A00ED
:105310000FD00020824271D051F8340001AA41F62A
:105320001001009016F052FE002868D103E001221F
:10533000ECE70120EEE701AA41F61101009816F012
:1053400045FE002873D101AA41F61201009816F01B
:105350003DFE00286BD101AA41F61301009816F01A
:1053600035FE002863D101AA41F61501009816F018
:105370002DFE00285BD101AA41F61401009816F019
:1053800025FEE0BB01AA41F26901009816F01EFE5D
:10539000A8BB01AA43F20C01009816F017FE70BBDF
:1053A00001AA43F20D01009816F010FE38BB01AAC5
:1053B00041F20101009816F009FE00BB01AA41F27A
:1053C0000401009816F002FEC8B901AA41F20201D8
:1053D000009816F0FBFD90B901AA41F20301009874
:1053E00016F0F4FD58B901AA41F20501009816F033
:1053F000EDFD20B901AA41F2060101E079E016E0D5
:10540000009816F0E3FD90B901AA41F2320100982C
:1054100016F0DCFD58B901AA4146009816F0D6FDF9
:1054200028B901AA4946009816F0D0FD10B1032012
:10543000BDE8FC9F01AA40F60A01009816F0C6FDDF
:10544000F0BB01AA40F60B01009816F0BFFDB8BBF7
:1054500001AA4146009816F0B9FD88BB01AA494649
:10546000009816F0B3FD58BB01AA40F63C01009825
:1054700016F0ACFD20BB01AA40F63D01009816F0E5
:10548000A5FDE8B901AA40F63A01009816F09EFD84
:10549000B0B901AA4FF40461009816F097FD78B9ED
:1054A00001AA40F64501009816F090FD40B901AA06
:1054B00040F64101009816F089FD08B901AA00E004
:1054C00013E040F64201009816F080FD68B901AA89
:1054D00040F64301009816F079FD30B901AA40F674
:1054E0004901009816F072FD08B1022501E005B9E6
:1054F0000125641C708CC0F3C500A0423FF6FAAED3
:10550000284695E701484068704700005801002090
:105510007047C0F30410072800D907207047000027
:1055200010B518210348FFF7A1FD034901200870B9
:1055300010BD000094520020440200202DE9F041EB
:1055400090460C46050015D0FBF73AF80A4F064680
:105550002146BA68284690470446BA682819414649
:1055600090470146701A03E06218AA5C2A55641C31
:10557000A042F9D2BDE8F081580200202DE9F041A7
:10558000094D90460E466A681C46074619469047E4
:10559000306020B120686A68384400219047C8F81C
:1055A0000000BDE8F0810000580200202DE9F04F16
:1055B00087B08A46DDE910581F469346044600210D
:1055C00005B129805CB12078002809D0BAF1000F1C
:1055D00005D0002618F0060F15D0002004E00020AA
:1055E00007B0BDE8F08F401C215C0A2904D00D29CA
:1055F00002D00029F7D100E0401C002DF0D04FF080
:10560000FF312980ECE75FEA887001D541F6FF772A
:10561000894608468DF81410049127E00498CDF8C7
:10562000189068B34FF0000C05AA06ABCDF80CC07B
:10563000CDF80080CDE9013220443B465A46514620
:1056400017F092FF06997A1A314417B20EB288B158
:1056500004990144049120780A280BD00D2809D020
:10566000605C0A280FD00D280DD00846205C08B1D8
:10567000002FD3DC049848B105B12E800498AFE721
:105680004FF0010CD0E7481C0490F3E7064A04A948
:10569000204652689047002DF0D001460022504627
:1056A0000FF05DFA06B2E8E7580200202DE9F0415C
:1056B0001746884606001ED0002F1CD0FAF780FF40
:1056C00004463846FAF77CFF050014D00B4A2C44F8
:1056D0004146926830469047411903E0621BB25C34
:1056E0003255641EA142F9D930442A463946BDE8F4
:1056F000F04111F085BDBDE8F081000058020020A6
:1057000000230278232902D0012A0DD00FE02AB10C
:105710000021012A04D0022A04D008E0012101E07E
:10572000017004E0017001E0202902D00123184635
:1057300070470221F6E72DE9F0410E468046024609
:1057400000213346084618F04BF904460027401C58
:1057500011F0C0FB050008D02F5533464246611CAE
:1057600018F03EF92846BDE8F081FEE72DE9F04744
:105770001E4614460D468246DDF8209015E000BF17
:105780004FEA540808FB0657394650464A469047A8
:10579000002808DD44F30000C0EB540407EB0605C5
:1057A000A4F1010401E005DA4446002CE8D12046CA
:1057B000BDE8F0873846FBE72DE9FC5F9B460CAB64
:1057C0008A468146DDE9116093E81210DDE90F5742
:1057D0005FEA80784FF030031AD45EB15FEAC07898
:1057E00008D000F00C0858EA0C0803D0761E01E03F
:1057F0000B55641CBC4204D2202CF9D301E00B559C
:10580000641C5FEAC07803D0B44201D2202CF6D3E6
:105810005FEAC06825D55FEA40580AD44CB1BC4263
:1058200001D0B44205D1641E03D0102D03D1641EF3
:1058300004E0102D02D0022D0AD00EE0850603D41C
:10584000202C1ED2782506E0202C1AD2582502E002
:10585000202C16D262250D55641C202C11D20B551C
:10586000641C202C0DD2BCF1000F01D02D2306E0CA
:10587000430701D52B2302E0030702D520230B5554
:10588000641CCDE900BAC846154681468B46AA4637
:10589000800714D1274607E02A46DDE900316D1C58
:1058A0002020C446E0477F1CB742F5D307E02A46D4
:1058B0006D1C641EDDE900311BF80400C047002C9C
:1058C000F5D15FEA897006D409E02A46DDE90031A6
:1058D0006D1C2020C047A5EB0A00B042F5D3284636
:1058E000BDE8FC9F2DE9F04F8FB099468B46DDE96E
:1058F0001818DDE91C63DDE91A4792468646002246
:1059000009B923F01003580507AD00D5C9B1B1FBA3
:10591000F4F004FB1010C0B20A2801D2303009E0C4
:105920005FEA836C02D54FF0410C01E04FF0610C4F
:1059300060440A38B1FBF4F1A854521C09B1202A82
:10594000E5D3CDF80880CDE90563CDE90052CDE976
:1059500003474B46524659467046FFF72DFF0FB09E
:10596000BDE8F08F2DE9FF4F8FB01CACDDE923952A
:1059700094E8030820AC94E8C004002450EA010233
:1059800001D125F010056A050DF11C0802D550EA79
:10599000010217D032463B46FAF7F2FCD2B20A2A8D
:1059A00001D2303206E0AB0601D5412300E061238D
:1059B0001A440A3A08F80420641C50EA010201D093
:1059C000202CE7D3CDE90084CDF808B0CDE90595CA
:1059D000CDE9036A0FAF97E80F00FFF7EDFE13B0B4
:1059E000BDE8F08F9A4200D288547047704700009B
:1059F0002DE9FF4F89B005460A98002492460028F9
:105A000000D1FE4D8FE1252804D02246641C534668
:105A10000A990BE2491C4FF0000808460C910178E6
:105A20002B2919D004DC202919D0232904D119E00D
:105A30002D290ED0302909D00026C8B2FEF789FAE8
:105A4000B0B10CA8FEF76EFA06461FE048F001015F
:105A50000AE048F0020107E048F0040104E048F0E1
:105A6000080101E048F01001401C88460C90D6E780
:105A70000C9908782A2809D1169840C81690002E4B
:105A800002DA48F002087642491C0C910C984FF05B
:105A9000000B01782E2919D1401C0C9048F4806825
:105AA0000078FEF756FA20B10CA8FEF73BFA8346C1
:105AB0000CE00C9A10782A2808D1169802C8169083
:105AC000002900DC0021521C8B460C920C980178B6
:105AD0006C290AD004DC68290FD06A2919D128E082
